{
  "contractName": "MultiSigWallet",
  "abi": [
    {
      "inputs": [
        {
          "internalType": "address[]",
          "name": "_owners",
          "type": "address[]"
        },
        {
          "internalType": "uint256",
          "name": "_required",
          "type": "uint256"
        }
      ],
      "stateMutability": "nonpayable",
      "type": "constructor"
    },
    {
      "anonymous": false,
      "inputs": [
        {
          "indexed": true,
          "internalType": "address",
          "name": "sender",
          "type": "address"
        },
        {
          "indexed": true,
          "internalType": "uint256",
          "name": "transactionId",
          "type": "uint256"
        }
      ],
      "name": "Confirmation",
      "type": "event"
    },
    {
      "anonymous": false,
      "inputs": [
        {
          "indexed": true,
          "internalType": "address",
          "name": "sender",
          "type": "address"
        },
        {
          "indexed": false,
          "internalType": "uint256",
          "name": "value",
          "type": "uint256"
        }
      ],
      "name": "Deposit",
      "type": "event"
    },
    {
      "anonymous": false,
      "inputs": [
        {
          "indexed": true,
          "internalType": "uint256",
          "name": "transactionId",
          "type": "uint256"
        }
      ],
      "name": "Execution",
      "type": "event"
    },
    {
      "anonymous": false,
      "inputs": [
        {
          "indexed": true,
          "internalType": "address",
          "name": "to",
          "type": "address"
        },
        {
          "indexed": false,
          "internalType": "uint256",
          "name": "value",
          "type": "uint256"
        },
        {
          "indexed": false,
          "internalType": "bytes",
          "name": "data",
          "type": "bytes"
        },
        {
          "indexed": false,
          "internalType": "uint256",
          "name": "nonce",
          "type": "uint256"
        }
      ],
      "name": "TransactionSubmitted",
      "type": "event"
    },
    {
      "inputs": [
        {
          "internalType": "address",
          "name": "",
          "type": "address"
        }
      ],
      "name": "isOwner",
      "outputs": [
        {
          "internalType": "bool",
          "name": "",
          "type": "bool"
        }
      ],
      "stateMutability": "view",
      "type": "function"
    },
    {
      "inputs": [],
      "name": "nonce",
      "outputs": [
        {
          "internalType": "uint256",
          "name": "",
          "type": "uint256"
        }
      ],
      "stateMutability": "view",
      "type": "function"
    },
    {
      "inputs": [
        {
          "internalType": "uint256",
          "name": "",
          "type": "uint256"
        }
      ],
      "name": "owners",
      "outputs": [
        {
          "internalType": "address",
          "name": "",
          "type": "address"
        }
      ],
      "stateMutability": "view",
      "type": "function"
    },
    {
      "inputs": [],
      "name": "required",
      "outputs": [
        {
          "internalType": "uint256",
          "name": "",
          "type": "uint256"
        }
      ],
      "stateMutability": "view",
      "type": "function"
    },
    {
      "inputs": [
        {
          "internalType": "uint256",
          "name": "",
          "type": "uint256"
        }
      ],
      "name": "transactions",
      "outputs": [
        {
          "internalType": "address",
          "name": "to",
          "type": "address"
        },
        {
          "internalType": "uint256",
          "name": "value",
          "type": "uint256"
        },
        {
          "internalType": "bytes",
          "name": "data",
          "type": "bytes"
        },
        {
          "internalType": "bool",
          "name": "executed",
          "type": "bool"
        },
        {
          "internalType": "uint256",
          "name": "nonce",
          "type": "uint256"
        }
      ],
      "stateMutability": "view",
      "type": "function"
    },
    {
      "inputs": [],
      "name": "deposit",
      "outputs": [],
      "stateMutability": "payable",
      "type": "function"
    },
    {
      "inputs": [
        {
          "internalType": "address",
          "name": "_to",
          "type": "address"
        },
        {
          "internalType": "uint256",
          "name": "_value",
          "type": "uint256"
        },
        {
          "internalType": "bytes",
          "name": "_data",
          "type": "bytes"
        },
        {
          "internalType": "bytes",
          "name": "_signature",
          "type": "bytes"
        }
      ],
      "name": "submitTransaction",
      "outputs": [],
      "stateMutability": "nonpayable",
      "type": "function"
    },
    {
      "inputs": [
        {
          "internalType": "uint256",
          "name": "_id",
          "type": "uint256"
        }
      ],
      "name": "confirmTransaction",
      "outputs": [],
      "stateMutability": "nonpayable",
      "type": "function"
    },
    {
      "inputs": [
        {
          "internalType": "uint256",
          "name": "_id",
          "type": "uint256"
        }
      ],
      "name": "executeTransaction",
      "outputs": [],
      "stateMutability": "nonpayable",
      "type": "function"
    },
    {
      "inputs": [
        {
          "internalType": "uint256",
          "name": "_id",
          "type": "uint256"
        }
      ],
      "name": "isConfirmed",
      "outputs": [
        {
          "internalType": "bool",
          "name": "",
          "type": "bool"
        }
      ],
      "stateMutability": "view",
      "type": "function"
    },
    {
      "inputs": [
        {
          "internalType": "address",
          "name": "_to",
          "type": "address"
        },
        {
          "internalType": "uint256",
          "name": "_value",
          "type": "uint256"
        },
        {
          "internalType": "bytes",
          "name": "_data",
          "type": "bytes"
        },
        {
          "internalType": "uint256",
          "name": "_nonce",
          "type": "uint256"
        }
      ],
      "name": "getMessageHash",
      "outputs": [
        {
          "internalType": "bytes32",
          "name": "",
          "type": "bytes32"
        }
      ],
      "stateMutability": "view",
      "type": "function"
    },
    {
      "inputs": [
        {
          "internalType": "bytes32",
          "name": "_messageHash",
          "type": "bytes32"
        },
        {
          "internalType": "bytes",
          "name": "_signature",
          "type": "bytes"
        }
      ],
      "name": "recoverSigner",
      "outputs": [
        {
          "internalType": "address",
          "name": "",
          "type": "address"
        }
      ],
      "stateMutability": "pure",
      "type": "function"
    }
  ],
  "bytecode": "0x60806040523480156200001157600080fd5b50604051620025af380380620025af83398181016040528101906200003791906200050e565b60008251116200007e576040517f08c379a00000000000000000000000000000000000000000000000000000000081526004016200007590620005d5565b60405180910390fd5b60008111801562000090575081518111155b620000d2576040517f08c379a0000000000000000000000000000000000000000000000000000000008152600401620000c99062000647565b60405180910390fd5b60005b8251811015620002d5576000838281518110620000f757620000f662000669565b5b60200260200101519050600073ffffffffffffffffffffffffffffffffffffffff168173ffffffffffffffffffffffffffffffffffffffff160362000173576040517f08c379a00000000000000000000000000000000000000000000000000000000081526004016200016a90620006e8565b60405180910390fd5b600260008273ffffffffffffffffffffffffffffffffffffffff1673ffffffffffffffffffffffffffffffffffffffff16815260200190815260200160002060009054906101000a900460ff161562000203576040517f08c379a0000000000000000000000000000000000000000000000000000000008152600401620001fa906200075a565b60405180910390fd5b6001600260008373ffffffffffffffffffffffffffffffffffffffff1673ffffffffffffffffffffffffffffffffffffffff16815260200190815260200160002060006101000a81548160ff0219169083151502179055506003819080600181540180825580915050600190039060005260206000200160009091909190916101000a81548173ffffffffffffffffffffffffffffffffffffffff021916908373ffffffffffffffffffffffffffffffffffffffff160217905550508080620002cc90620007ab565b915050620000d5565b50806001819055505050620007f8565b6000604051905090565b600080fd5b600080fd5b600080fd5b6000601f19601f8301169050919050565b7f4e487b7100000000000000000000000000000000000000000000000000000000600052604160045260246000fd5b6200034982620002fe565b810181811067ffffffffffffffff821117156200036b576200036a6200030f565b5b80604052505050565b600062000380620002e5565b90506200038e82826200033e565b919050565b600067ffffffffffffffff821115620003b157620003b06200030f565b5b602082029050602081019050919050565b600080fd5b600073ffffffffffffffffffffffffffffffffffffffff82169050919050565b6000620003f482620003c7565b9050919050565b6200040681620003e7565b81146200041257600080fd5b50565b6000815190506200042681620003fb565b92915050565b6000620004436200043d8462000393565b62000374565b90508083825260208201905060208402830185811115620004695762000468620003c2565b5b835b8181101562000496578062000481888262000415565b8452602084019350506020810190506200046b565b5050509392505050565b600082601f830112620004b857620004b7620002f9565b5b8151620004ca8482602086016200042c565b91505092915050565b6000819050919050565b620004e881620004d3565b8114620004f457600080fd5b50565b6000815190506200050881620004dd565b92915050565b60008060408385031215620005285762000527620002ef565b5b600083015167ffffffffffffffff811115620005495762000548620002f4565b5b6200055785828601620004a0565b92505060206200056a85828601620004f7565b9150509250929050565b600082825260208201905092915050565b7f4f776e6572732072657175697265640000000000000000000000000000000000600082015250565b6000620005bd600f8362000574565b9150620005ca8262000585565b602082019050919050565b60006020820190508181036000830152620005f081620005ae565b9050919050565b7f496e76616c696420726571756972656d656e7400000000000000000000000000600082015250565b60006200062f60138362000574565b91506200063c82620005f7565b602082019050919050565b60006020820190508181036000830152620006628162000620565b9050919050565b7f4e487b7100000000000000000000000000000000000000000000000000000000600052603260045260246000fd5b7f496e76616c6964206f776e657220616464726573730000000000000000000000600082015250565b6000620006d060158362000574565b9150620006dd8262000698565b602082019050919050565b600060208201905081810360008301526200070381620006c1565b9050919050565b7f4475706c6963617465206f776e65720000000000000000000000000000000000600082015250565b600062000742600f8362000574565b91506200074f826200070a565b602082019050919050565b60006020820190508181036000830152620007758162000733565b9050919050565b7f4e487b7100000000000000000000000000000000000000000000000000000000600052601160045260246000fd5b6000620007b882620004d3565b91507fffffffffffffffffffffffffffffffffffffffffffffffffffffffffffffffff8203620007ed57620007ec6200077c565b5b600182019050919050565b611da780620008086000396000f3fe6080604052600436106100a75760003560e01c8063aa1ac56311610064578063aa1ac5631461021e578063affed0e014610247578063c01a8c8414610272578063d0e30db01461029b578063dc8452cd146102a5578063ee22610b146102d0576100a7565b8063025e7c27146100ac578063221f8c00146100e95780632f54bf6e14610126578063784547a71461016357806397aba7f9146101a05780639ace38c2146101dd575b600080fd5b3480156100b857600080fd5b506100d360048036038101906100ce9190610eed565b6102f9565b6040516100e09190610f5b565b60405180910390f35b3480156100f557600080fd5b50610110600480360381019061010b91906110e8565b610338565b60405161011d9190611184565b60405180910390f35b34801561013257600080fd5b5061014d6004803603810190610148919061119f565b61039e565b60405161015a91906111e7565b60405180910390f35b34801561016f57600080fd5b5061018a60048036038101906101859190610eed565b6103be565b60405161019791906111e7565b60405180910390f35b3480156101ac57600080fd5b506101c760048036038101906101c2919061122e565b6104be565b6040516101d49190610f5b565b60405180910390f35b3480156101e957600080fd5b5061020460048036038101906101ff9190610eed565b610578565b604051610215959493929190611318565b60405180910390f35b34801561022a57600080fd5b5061024560048036038101906102409190611372565b610663565b005b34801561025357600080fd5b5061025c6109bc565b6040516102699190611411565b60405180910390f35b34801561027e57600080fd5b5061029960048036038101906102949190610eed565b6109c2565b005b6102a3610be8565b005b3480156102b157600080fd5b506102ba610c38565b6040516102c79190611411565b60405180910390f35b3480156102dc57600080fd5b506102f760048036038101906102f29190610eed565b610c3e565b005b6003818154811061030957600080fd5b906000526020600020016000915054906101000a900473ffffffffffffffffffffffffffffffffffffffff1681565b600080308686868660405160200161035495949392919061142c565b6040516020818303038152906040528051906020012060405160200161037a91906114fe565b60405160208183030381529060405280519060200120905080915050949350505050565b60026020528060005260406000206000915054906101000a900460ff1681565b6000806004600084815260200190815260200160002090506000805b6003805490508110156104b1578260050160006003838154811061040157610400611524565b5b9060005260206000200160009054906101000a900473ffffffffffffffffffffffffffffffffffffffff1673ffffffffffffffffffffffffffffffffffffffff1673ffffffffffffffffffffffffffffffffffffffff16815260200190815260200160002060009054906101000a900460ff1615610489576001826104869190611582565b91505b600154820361049e57600193505050506104b9565b80806104a9906115b6565b9150506103da565b506000925050505b919050565b60008060008060418551146104d95760009350505050610572565b602085015192506040850151915060ff604186015116905060008660405160200161050491906114fe565b6040516020818303038152906040528051906020012090506001818386866040516000815260200160405260405161053f949392919061161a565b6020604051602081039080840390855afa158015610561573d6000803e3d6000fd5b505050602060405103519450505050505b92915050565b60046020528060005260406000206000915090508060000160009054906101000a900473ffffffffffffffffffffffffffffffffffffffff16908060010154908060020180546105c79061168e565b80601f01602080910402602001604051908101604052809291908181526020018280546105f39061168e565b80156106405780601f1061061557610100808354040283529160200191610640565b820191906000526020600020905b81548152906001019060200180831161062357829003601f168201915b5050505050908060030160009054906101000a900460ff16908060040154905085565b600260003373ffffffffffffffffffffffffffffffffffffffff1673ffffffffffffffffffffffffffffffffffffffff16815260200190815260200160002060009054906101000a900460ff166106ef576040517f08c379a00000000000000000000000000000000000000000000000000000000081526004016106e69061171c565b60405180910390fd5b600073ffffffffffffffffffffffffffffffffffffffff168473ffffffffffffffffffffffffffffffffffffffff160361075e576040517f08c379a000000000000000000000000000000000000000000000000000000000815260040161075590611788565b60405180910390fd5b8373ffffffffffffffffffffffffffffffffffffffff167fc787544c94f7b205c8c019e7c1881c6fc7c1c0215f8c7c87baaa7841f9240d9684846000546040516107aa939291906117a8565b60405180910390a260006107c2858585600054610338565b905060006107d082846104be565b9050600260008273ffffffffffffffffffffffffffffffffffffffff1673ffffffffffffffffffffffffffffffffffffffff16815260200190815260200160002060009054906101000a900460ff1661085e576040517f08c379a000000000000000000000000000000000000000000000000000000000815260040161085590611832565b60405180910390fd5b600060046000805481526020019081526020016000209050868160000160006101000a81548173ffffffffffffffffffffffffffffffffffffffff021916908373ffffffffffffffffffffffffffffffffffffffff160217905550858160010181905550848160020190816108d391906119fe565b5060008160030160006101000a81548160ff021916908315150217905550600054816004018190555060018160050160008473ffffffffffffffffffffffffffffffffffffffff1673ffffffffffffffffffffffffffffffffffffffff16815260200190815260200160002060006101000a81548160ff0219169083151502179055506000548273ffffffffffffffffffffffffffffffffffffffff167f4a504a94899432a9846e1aa406dceb1bcfd538bb839071d49d1e5e23f5be30ef60405160405180910390a36000808154809291906109ae906115b6565b919050555050505050505050565b60005481565b600260003373ffffffffffffffffffffffffffffffffffffffff1673ffffffffffffffffffffffffffffffffffffffff16815260200190815260200160002060009054906101000a900460ff16610a4e576040517f08c379a0000000000000000000000000000000000000000000000000000000008152600401610a459061171c565b60405180910390fd5b60006004600083815260200190815260200160002090508060030160009054906101000a900460ff1615610ab7576040517f08c379a0000000000000000000000000000000000000000000000000000000008152600401610aae90611b1c565b60405180910390fd5b8060050160003373ffffffffffffffffffffffffffffffffffffffff1673ffffffffffffffffffffffffffffffffffffffff16815260200190815260200160002060009054906101000a900460ff1615610b46576040517f08c379a0000000000000000000000000000000000000000000000000000000008152600401610b3d90611bae565b60405180910390fd5b60018160050160003373ffffffffffffffffffffffffffffffffffffffff1673ffffffffffffffffffffffffffffffffffffffff16815260200190815260200160002060006101000a81548160ff021916908315150217905550813373ffffffffffffffffffffffffffffffffffffffff167f4a504a94899432a9846e1aa406dceb1bcfd538bb839071d49d1e5e23f5be30ef60405160405180910390a35050565b3373ffffffffffffffffffffffffffffffffffffffff167fe1fffcc4923d04b559f4d29a8bfc6cda04eb5b0d3c460751c2402c5c5cc9109c34604051610c2e9190611411565b60405180910390a2565b60015481565b600260003373ffffffffffffffffffffffffffffffffffffffff1673ffffffffffffffffffffffffffffffffffffffff16815260200190815260200160002060009054906101000a900460ff16610cca576040517f08c379a0000000000000000000000000000000000000000000000000000000008152600401610cc19061171c565b60405180910390fd5b6000600460008381526020019081526020016000209050610cea826103be565b610d29576040517f08c379a0000000000000000000000000000000000000000000000000000000008152600401610d2090611c40565b60405180910390fd5b8060030160009054906101000a900460ff1615610d7b576040517f08c379a0000000000000000000000000000000000000000000000000000000008152600401610d7290611b1c565b60405180910390fd5b60018160030160006101000a81548160ff02191690831515021790555060008160000160009054906101000a900473ffffffffffffffffffffffffffffffffffffffff1673ffffffffffffffffffffffffffffffffffffffff16826001015483600201604051610deb9190611cee565b60006040518083038185875af1925050503d8060008114610e28576040519150601f19603f3d011682016040523d82523d6000602084013e610e2d565b606091505b5050905080610e71576040517f08c379a0000000000000000000000000000000000000000000000000000000008152600401610e6890611d51565b60405180910390fd5b827f33e13ecb54c3076d8e8bb8c2881800a4d972b792045ffae98fdf46df365fed7560405160405180910390a2505050565b6000604051905090565b600080fd5b600080fd5b6000819050919050565b610eca81610eb7565b8114610ed557600080fd5b50565b600081359050610ee781610ec1565b92915050565b600060208284031215610f0357610f02610ead565b5b6000610f1184828501610ed8565b91505092915050565b600073ffffffffffffffffffffffffffffffffffffffff82169050919050565b6000610f4582610f1a565b9050919050565b610f5581610f3a565b82525050565b6000602082019050610f706000830184610f4c565b92915050565b610f7f81610f3a565b8114610f8a57600080fd5b50565b600081359050610f9c81610f76565b92915050565b600080fd5b600080fd5b6000601f19601f8301169050919050565b7f4e487b7100000000000000000000000000000000000000000000000000000000600052604160045260246000fd5b610ff582610fac565b810181811067ffffffffffffffff8211171561101457611013610fbd565b5b80604052505050565b6000611027610ea3565b90506110338282610fec565b919050565b600067ffffffffffffffff82111561105357611052610fbd565b5b61105c82610fac565b9050602081019050919050565b82818337600083830152505050565b600061108b61108684611038565b61101d565b9050828152602081018484840111156110a7576110a6610fa7565b5b6110b2848285611069565b509392505050565b600082601f8301126110cf576110ce610fa2565b5b81356110df848260208601611078565b91505092915050565b6000806000806080858703121561110257611101610ead565b5b600061111087828801610f8d565b945050602061112187828801610ed8565b935050604085013567ffffffffffffffff81111561114257611141610eb2565b5b61114e878288016110ba565b925050606061115f87828801610ed8565b91505092959194509250565b6000819050919050565b61117e8161116b565b82525050565b60006020820190506111996000830184611175565b92915050565b6000602082840312156111b5576111b4610ead565b5b60006111c384828501610f8d565b91505092915050565b60008115159050919050565b6111e1816111cc565b82525050565b60006020820190506111fc60008301846111d8565b92915050565b61120b8161116b565b811461121657600080fd5b50565b60008135905061122881611202565b92915050565b6000806040838503121561124557611244610ead565b5b600061125385828601611219565b925050602083013567ffffffffffffffff81111561127457611273610eb2565b5b611280858286016110ba565b9150509250929050565b61129381610eb7565b82525050565b600081519050919050565b600082825260208201905092915050565b60005b838110156112d35780820151818401526020810190506112b8565b60008484015250505050565b60006112ea82611299565b6112f481856112a4565b93506113048185602086016112b5565b61130d81610fac565b840191505092915050565b600060a08201905061132d6000830188610f4c565b61133a602083018761128a565b818103604083015261134c81866112df565b905061135b60608301856111d8565b611368608083018461128a565b9695505050505050565b6000806000806080858703121561138c5761138b610ead565b5b600061139a87828801610f8d565b94505060206113ab87828801610ed8565b935050604085013567ffffffffffffffff8111156113cc576113cb610eb2565b5b6113d8878288016110ba565b925050606085013567ffffffffffffffff8111156113f9576113f8610eb2565b5b611405878288016110ba565b91505092959194509250565b6000602082019050611426600083018461128a565b92915050565b600060a0820190506114416000830188610f4c565b61144e6020830187610f4c565b61145b604083018661128a565b818103606083015261146d81856112df565b905061147c608083018461128a565b9695505050505050565b600081905092915050565b7f19457468657265756d205369676e6564204d6573736167653a0a333200000000600082015250565b60006114c7601c83611486565b91506114d282611491565b601c82019050919050565b6000819050919050565b6114f86114f38261116b565b6114dd565b82525050565b6000611509826114ba565b915061151582846114e7565b60208201915081905092915050565b7f4e487b7100000000000000000000000000000000000000000000000000000000600052603260045260246000fd5b7f4e487b7100000000000000000000000000000000000000000000000000000000600052601160045260246000fd5b600061158d82610eb7565b915061159883610eb7565b92508282019050808211156115b0576115af611553565b5b92915050565b60006115c182610eb7565b91507fffffffffffffffffffffffffffffffffffffffffffffffffffffffffffffffff82036115f3576115f2611553565b5b600182019050919050565b600060ff82169050919050565b611614816115fe565b82525050565b600060808201905061162f6000830187611175565b61163c602083018661160b565b6116496040830185611175565b6116566060830184611175565b95945050505050565b7f4e487b7100000000000000000000000000000000000000000000000000000000600052602260045260246000fd5b600060028204905060018216806116a657607f821691505b6020821081036116b9576116b861165f565b5b50919050565b600082825260208201905092915050565b7f4e6f7420616e206f776e65720000000000000000000000000000000000000000600082015250565b6000611706600c836116bf565b9150611711826116d0565b602082019050919050565b60006020820190508181036000830152611735816116f9565b9050919050565b7f496e76616c696420726563697069656e74206164647265737300000000000000600082015250565b60006117726019836116bf565b915061177d8261173c565b602082019050919050565b600060208201905081810360008301526117a181611765565b9050919050565b60006060820190506117bd600083018661128a565b81810360208301526117cf81856112df565b90506117de604083018461128a565b949350505050565b7f496e76616c6964207369676e6174757265000000000000000000000000000000600082015250565b600061181c6011836116bf565b9150611827826117e6565b602082019050919050565b6000602082019050818103600083015261184b8161180f565b9050919050565b60008190508160005260206000209050919050565b60006020601f8301049050919050565b600082821b905092915050565b6000600883026118b47fffffffffffffffffffffffffffffffffffffffffffffffffffffffffffffffff82611877565b6118be8683611877565b95508019841693508086168417925050509392505050565b6000819050919050565b60006118fb6118f66118f184610eb7565b6118d6565b610eb7565b9050919050565b6000819050919050565b611915836118e0565b61192961192182611902565b848454611884565b825550505050565b600090565b61193e611931565b61194981848461190c565b505050565b5b8181101561196d57611962600082611936565b60018101905061194f565b5050565b601f8211156119b25761198381611852565b61198c84611867565b8101602085101561199b578190505b6119af6119a785611867565b83018261194e565b50505b505050565b600082821c905092915050565b60006119d5600019846008026119b7565b1980831691505092915050565b60006119ee83836119c4565b9150826002028217905092915050565b611a0782611299565b67ffffffffffffffff811115611a2057611a1f610fbd565b5b611a2a825461168e565b611a35828285611971565b600060209050601f831160018114611a685760008415611a56578287015190505b611a6085826119e2565b865550611ac8565b601f198416611a7686611852565b60005b82811015611a9e57848901518255600182019150602085019450602081019050611a79565b86831015611abb5784890151611ab7601f8916826119c4565b8355505b6001600288020188555050505b505050505050565b7f5472616e73616374696f6e20616c726561647920657865637574656400000000600082015250565b6000611b06601c836116bf565b9150611b1182611ad0565b602082019050919050565b60006020820190508181036000830152611b3581611af9565b9050919050565b7f5472616e73616374696f6e20616c726561647920636f6e6669726d656420627960008201527f206f776e65720000000000000000000000000000000000000000000000000000602082015250565b6000611b986026836116bf565b9150611ba382611b3c565b604082019050919050565b60006020820190508181036000830152611bc781611b8b565b9050919050565b7f5472616e73616374696f6e206e6f7420636f6e6669726d65642062792072657160008201527f7569726564206e756d626572206f66206f776e65727300000000000000000000602082015250565b6000611c2a6036836116bf565b9150611c3582611bce565b604082019050919050565b60006020820190508181036000830152611c5981611c1d565b9050919050565b600081905092915050565b60008154611c788161168e565b611c828186611c60565b94506001821660008114611c9d5760018114611cb257611ce5565b60ff1983168652811515820286019350611ce5565b611cbb85611852565b60005b83811015611cdd57815481890152600182019150602081019050611cbe565b838801955050505b50505092915050565b6000611cfa8284611c6b565b915081905092915050565b7f5472616e73616374696f6e20657865637574696f6e206661696c656400000000600082015250565b6000611d3b601c836116bf565b9150611d4682611d05565b602082019050919050565b60006020820190508181036000830152611d6a81611d2e565b905091905056fea2646970667358221220c68d6aec9b7ba7ba7283543d5c7722e560d71f25bdb920f50429d93eee616e0564736f6c63430008130033",
  "immutableReferences": {},
  "source": "// SPDX-License-Identifier: MIT\r\npragma solidity ^0.8.0;\r\n\r\ncontract MultiSigWallet {\r\n    uint256 public nonce;\r\n    uint256 public required;\r\n    \r\n    mapping(address => bool) public isOwner;\r\n    address[] public owners;\r\n\r\n    struct Transaction {\r\n        address to;\r\n        uint256 value;\r\n        bytes data;\r\n        bool executed;\r\n        uint256 nonce;\r\n        mapping(address => bool) confirmations;\r\n    }\r\n\r\n    mapping(uint256 => Transaction) public transactions;\r\n\r\n    event Confirmation(address indexed sender, uint256 indexed transactionId);\r\n    event Execution(uint256 indexed transactionId);\r\n    event Deposit(address indexed sender, uint256 value);\r\n\r\n    modifier onlyOwner() {\r\n        require(isOwner[msg.sender], \"Not an owner\");\r\n        _;\r\n    }\r\n\r\n    constructor(address[] memory _owners, uint256 _required) {\r\n        require(_owners.length > 0, \"Owners required\");\r\n        require(_required > 0 && _required <= _owners.length, \"Invalid requirement\");\r\n\r\n        for (uint256 i = 0; i < _owners.length; i++) {\r\n            address owner = _owners[i];\r\n            require(owner != address(0), \"Invalid owner address\");\r\n            require(!isOwner[owner], \"Duplicate owner\");\r\n\r\n            isOwner[owner] = true;\r\n            owners.push(owner);\r\n        }\r\n\r\n        required = _required;\r\n    }\r\n\r\n    function deposit() external payable {\r\n        emit Deposit(msg.sender, msg.value);\r\n    }\r\n\r\n  function submitTransaction(address _to, uint256 _value, bytes memory _data, bytes memory _signature) external  onlyOwner  {\r\n        require(_to != address(0), \"Invalid recipient address\");\r\n\r\n        emit TransactionSubmitted(_to, _value, _data, nonce);\r\n\r\n        bytes32 messageHash = getMessageHash(_to, _value, _data, nonce);\r\n\r\n        address signer = recoverSigner(messageHash, _signature);\r\n\r\n        //return signer;\r\n\r\n        require(isOwner[signer], \"Invalid signature\");\r\n\r\n        Transaction storage newTransaction = transactions[nonce];\r\n        newTransaction.to = _to;\r\n        newTransaction.value = _value;\r\n        newTransaction.data = _data;\r\n        newTransaction.executed = false;\r\n        newTransaction.nonce = nonce;\r\n\r\n        newTransaction.confirmations[signer] = true;\r\n\r\n        emit Confirmation(signer, nonce);\r\n\r\n        nonce++;\r\n    }\r\n\r\n    function confirmTransaction(uint256 _id) public onlyOwner {\r\n        Transaction storage transaction = transactions[_id];\r\n\r\n        require(!transaction.executed, \"Transaction already executed\");\r\n        require(!transaction.confirmations[msg.sender], \"Transaction already confirmed by owner\");\r\n\r\n        transaction.confirmations[msg.sender] = true;\r\n\r\n        emit Confirmation(msg.sender, _id);\r\n        \r\n        // if (isConfirmed(_id)) {\r\n        //     executeTransaction(_id);\r\n        // }\r\n    }\r\n\r\n    function executeTransaction(uint256 _id) public onlyOwner { //make it private\r\n        Transaction storage transaction = transactions[_id];\r\n\r\n        require(isConfirmed(_id), \"Transaction not confirmed by required number of owners\");\r\n        require(!transaction.executed, \"Transaction already executed\");\r\n\r\n        transaction.executed = true;\r\n\r\n        (bool success, ) = transaction.to.call{value: transaction.value}(transaction.data);\r\n        require(success, \"Transaction execution failed\");\r\n\r\n        emit Execution(_id);\r\n    }\r\n    function isConfirmed(uint256 _id) public view returns (bool) { //make it private\r\n        Transaction storage transaction = transactions[_id];\r\n        uint256 count = 0;\r\n\r\n        for (uint256 i = 0; i < owners.length; i++) {\r\n            if (transaction.confirmations[owners[i]]) {\r\n                count += 1;\r\n            }\r\n\r\n            if (count == required) {\r\n                return true;\r\n            }\r\n        }\r\n\r\n        return false;\r\n    }\r\n    // function getMessageHash(address _to, uint256 _value, bytes memory _data, uint256 _nonce) public view returns (bytes32) {\r\n    //     return keccak256(abi.encodePacked(address(this), _to, _value, _data, _nonce));\r\n    // }\r\n\r\n    event TransactionSubmitted(address indexed to, uint256 value, bytes data, uint256 nonce);\r\n\r\n       \r\n\r\n    function getMessageHash(address _to, uint256 _value, bytes memory _data, uint256 _nonce) public view returns (bytes32) {\r\n        bytes32 messageHash = keccak256(\r\n            abi.encodePacked(\r\n                \"\\x19Ethereum Signed Message:\\n32\",\r\n                keccak256(\r\n                    abi.encode(\r\n                        address(this),\r\n                        _to,\r\n                        _value,\r\n                        _data,\r\n                        _nonce\r\n                    )\r\n                )\r\n            )\r\n        );\r\n        return messageHash;\r\n    }\r\n\r\n\r\n    // function recoverSigner(bytes32 _hash, bytes memory _signature) public pure returns (address) {\r\n    //     require(_signature.length == 65, \"Invalid signature length\");\r\n\r\n    //     bytes32 r;\r\n    //     bytes32 s;\r\n    //     uint8 v;\r\n\r\n    //     assembly {\r\n    //         r := mload(add(_signature, 32))\r\n    //         s := mload(add(_signature, 64))\r\n    //         v := and(mload(add(_signature, 65)), 255)\r\n    //     }\r\n\r\n    //     if (v < 27) {\r\n    //         v += 27;\r\n    //     }\r\n\r\n    //     require(v == 27 || v == 28, \"Invalid signature v value\");\r\n\r\n    //     return ecrecover(_hash, v, r, s);\r\n    // }\r\n\r\n    function recoverSigner(bytes32 _messageHash, bytes memory _signature)\r\n    public\r\n    pure\r\n    returns (address)\r\n{\r\n    bytes32 r;\r\n    bytes32 s;\r\n    uint8 v;\r\n\r\n    // Check the signature length\r\n    if (_signature.length != 65) {\r\n        return address(0);\r\n    }\r\n\r\n    // Extract the signature parameters\r\n    assembly {\r\n        r := mload(add(_signature, 32))\r\n        s := mload(add(_signature, 64))\r\n        v := and(mload(add(_signature, 65)), 255)\r\n    }\r\n\r\n    // EIP-2 still allows signature malleability for ecrecover(). Remove this possibility and make the signature\r\n    // unique. Appendix F in the Ethereum Yellow paper (https://ethereum.github.io/yellowpaper/paper.pdf),\r\n    // defines the signed message hash as the message that is hashed with the prefix\r\n    bytes32 prefixedHash = keccak256(abi.encodePacked(\"\\x19Ethereum Signed Message:\\n32\", _messageHash));\r\n\r\n    return ecrecover(prefixedHash, v, r, s);\r\n}\r\n\r\n}\r\n",
  "sourcePath": "C:\\Users\\srava\\Desktop\\BC\\BC2010\\MultiSignatureWallet\\contracts\\MultiSigWallet.sol",
  "compiler": {
    "name": "solc",
    "version": "0.8.19+commit.7dd6d404.Emscripten.clang"
  },
  "schemaVersion": "3.4.13",
  "updatedAt": "2023-03-31T21:56:50.080Z",
  "devdoc": {
    "kind": "dev",
    "methods": {},
    "version": 1
  },
  "userdoc": {
    "kind": "user",
    "methods": {},
    "version": 1
  }
}